:020000040800F2
:10000000FC0300209903000805040008050400080B
:1000100005040008050400080504000800000000AD
:1000200000000000000000000000000005040008BF
:10003000050400080000000005040008050400088D
:10004000050400080504000805040008050400086C
:10005000050400080504000805040008050400085C
:10006000050400080504000805040008050400084C
:10007000050400080504000805040008050400083C
:10008000050400080504000805040008050400082C
:10009000050400080504000805040008050400081C
:1000A000050400080504000805040008050400080C
:1000B00005040008050400080504000805040008FC
:1000C00005040008050400080504000805040008EC
:1000D00005040008050400080504000805040008DC
:1000E00005040008050400080504000805040008CC
:1000F00005040008050400080504000805040008BC
:1001000005040008050400080504000805040008AB
:10011000050400080504000805040008050400089B
:10012000050400080504000805040008050400088B
:100130005FF808F180B500AF4FF48053C4F20203BA
:100140004FF48052C4F20202126842F001021A60B7
:100150004FF48052C4F202024FF48053C4F20203FF
:100160005B6819464FF00003CFF6FF030B40536066
:100170004FF48053C4F202034FF48052C4F20202DF
:10018000126822F0847222F480321A604FF4805395
:10019000C4F202034FF48052C4F20202126822F445
:1001A00080221A604FF48053C4F202034FF480524D
:1001B000C4F20202526822F4FE025A604FF48053E5
:1001C000C4F202034FF41F029A6000F009F84FF4E2
:1001D0006D43CEF200034FF000629A6080BD00BF15
:1001E00080B500AF00F002F880BD00BF80B483B0DE
:1001F00000AF4FF000037B604FF000033B604FF413
:100200008053C4F202034FF48052C4F20202126817
:1002100042F480321A604FF48053C4F202031B6828
:1002200003F400333B607B6803F101037B603B68B0
:10023000002B03D17B68B3F5A06FECD14FF4805352
:10024000C4F202031B6803F40033002B03D04FF009
:1002500001033B6002E04FF000033B603B68012B71
:1002600040F094804FF40053C4F202034FF4005264
:10027000C4F20202126842F010021A604FF40053F6
:10028000C4F202034FF40052C4F20202126822F0D8
:1002900003021A604FF40053C4F202034FF40052F9
:1002A000C4F20202126842F002021A604FF4805354
:1002B000C4F202034FF48052C4F2020252685A6040
:1002C0004FF48053C4F202034FF48052C4F202028E
:1002D00052685A604FF48053C4F202034FF48052C4
:1002E000C4F20202526842F480625A604FF48053B2
:1002F000C4F202034FF48052C4F20202526822F4A4
:100300007C125A604FF48053C4F202034FF48052BF
:10031000C4F20202526842F4E8125A604FF4805369
:10032000C4F202034FF48052C4F20202126842F097
:1003300080721A6000BF4FF48053C4F202031B683E
:1003400003F00073002BF6D04FF48053C4F2020385
:100350004FF48052C4F20202526822F003025A6043
:100360004FF48053C4F202034FF48052C4F20202ED
:10037000526842F002025A6000BF4FF48053C4F248
:1003800002035B6803F00C03082BF6D107F10C079E
:10039000BD4680BC704700BF80B582B000AF40F260
:1003A0000073C0F600037B6040F20003C2F200035A
:1003B0003B600BE07B681A683B681A603B6803F19E
:1003C00004033B607B6803F104037B603A6840F2FE
:1003D0000003C2F200039A42ECD3084808494FF0E8
:1003E00000028842B8BF40F8042BFADBFFF7A2FEF8
:1003F00000F052F907F10807BD4680BD000000205B
:100400000000002080B400AFFEE700BF80B489B0D8
:1004100000AF786039604FF00003FB614FF00003DC
:100420003B614FF00003BB614FF00003FB604FF0F6
:1004300000037B614FF00003BB603B68DB7803F097
:100440000F03FB613B68DB7803F01003002B04D043
:100450003B689B78FA691343FB613B681B88DBB2FE
:10046000002B4ED07B681B687B614FF00003BB61A3
:1004700041E0BB694FF0010202FA03F3FB603B6805
:100480001B881A46FB6813403B613A69FB689A4235
:100490002DD1BB694FEA8303FB60FB684FF00F026D
:1004A00002FA03F3BB60BB686FEA03037A69134087
:1004B0007B61FB68FA6902FA03F37A6913437B6193
:1004C0003B68DB78282B07D1BB694FF0010202FAA9
:1004D00003F27B685A610AE03B68DB78482B06D15F
:1004E000BB694FF0010202FA03F27B681A61BB6933
:1004F00003F10103BB61BB69072BBAD97B687A6939
:100500001A603B681B88FF2B53D97B685B687B6153
:100510004FF00003BB6146E0BB6903F108034FF0F5
:10052000010202FA03F3FB603B681B881A46FB6872
:1005300013403B613A69FB689A4230D1BB694FEA8C
:100540008303FB60FB684FF00F0202FA03F3BB600A
:10055000BB686FEA03037A6913407B61FB68FA6941
:1005600002FA03F37A6913437B613B68DB78282B3B
:1005700008D1BB6903F108034FF0010202FA03F24C
:100580007B685A613B68DB78482B08D1BB6903F173
:1005900008034FF0010202FA03F27B681A61BB699B
:1005A00003F10103BB61BB69072BB5D97B687A698D
:1005B0005A6007F12407BD4680BC704780B582B001
:1005C00000AF4FF008004FF0010100F06DF84FF060
:1005D00003033B804FF01003FB704FF00303BB702D
:1005E0003B464FF44060C4F201001946FFF70EFF8E
:1005F0004FF004033B804FF00403FB704FF0030304
:10060000BB703B464FF44060C4F201001946FFF74F
:10061000FDFE00E000BF4FF44063C4F201034FF45D
:100620004062C4F20102D26882F00102DA604FF047
:1006300000037B6003E07B6803F101037B607A6861
:100640004FF6FF73C0F20F039A42F4DD4FF440639C
:10065000C4F201039B6803F00403002BDAD04FF4CB
:100660004063C4F201034FF44062C4F20102D26855
:1006700082F00202DA604FF000037B6003E07B68E7
:1006800003F101037B607A684FF6FF73C0F20F033A
:100690009A42F4DDBEE700BF80B500AFFFF78EFFE2
:1006A0004FF00003184680BD80B483B000AF78607F
:1006B0000B46FB70FB78002B0DD04FF48053C4F237
:1006C00002034FF48052C4F20202926911467A6822
:1006D0000A439A610EE04FF48053C4F202034FF4D0
:1006E0008052C4F20202926911467A686FEA0202ED
:1006F0000A409A6107F10C07BD4680BC704700BFF5
:0400000508000000EF
:00000001FF
